:020000040800F2
:1000000000000A20D1A00008019F0008499F0008B5
:100010005D9F0008619F0008659F000821A10008FE
:100020000000000000000000000000000D3A03087E
:10003000699F000800000000C539030881FB020821
:1000400021A1000821A100086D9F000821A100083E
:1000500021A1000821A1000821A1000821A1000878
:1000600021A1000821A1000821A100089D9F0008EE
:10007000EDE6060821A1000871E6060821A10008A6
:1000800021A1000879E606082DE7060881E60608A2
:1000900021A1000821A1000821A100086DE70608A0
:1000A00021A1000821A100088DE60608E9E806085C
:1000B0008DE806085DE8060821A1000821A10008D6
:1000C00009E9060821A1000821A10008799F00087C
:1000D00021A1000821A1000821A1000821A10008F8
:1000E00021A1000821A1000829EB060821A1000890
:1000F000C9EB060891E70608312A050821A1000886
:10010000DD2A0508859F000821A1000821A100081B
:1001100021A1000821A1000821A1000821A10008B7
:1001200021A1000881E80608A9E7060821A1000826
:1001300021A100084DE9060821A1000821A100081D
:1001400021A1000821A1000821A1000821A1000887
:1001500021A1000821A1000821A1000821A1000877
:100160009DE7060821A1000875E8060821A10008FE
:1001700021A1000821A1000821A10008919F0008E9
:1001800021A1000821A1000821A1000821A1000847
:1001900021A1000821A1000821A1000821A1000837
:1001A00021A1000821A1000821A1000821A1000827
:1001B00021A1000821A1000821A1000821A1000817
:1001C00021A1000821A1000821A1000821A1000807
:1001D00021A1000821A1000821A1000821A10008F7
:1001E00021A1000821A1000821A1000821A10008E7
:1001F00021A1000821A1000821A1000821A10008D7
:1002000021A1000821A1000821A1000821A10008C6
:1002100021A1000821A1000821A1000821A10008B6
:1002200021A1000821A1000821A1000821A10008A6
:1002300021A1000821A1000821A1000821A1000896
:0C02400021A1000821A1000821A1000854
:100250000348044B834202D0034B03B11847704755
:10026000347A0120347A012000000000064B07494F
:10027000C91A891048BF0131491003D0044B0BB192
:1002800001481847704700BF347A0120347A0120B2
:100290000000000010B5064C237843B9FFF7D8FFE3
:1002A000044B13B10448AFF300800123237010BD49
:1002B000387A012000000000787B0B0808B5044B59
:1002C0001BB104490448AFF30080BDE80840CDE706
:1002D000000000003C7A0120787B0B080F4B70B5C2
:1002E0000F4DAB42A3EB050607D0B6100024013436
:1002F00055F8043B9847A642F9D80A4DB7F03CFCA4
:10030000094B5E1BAB424FEAA60606D0002401341F
:1003100055F8043B9847A642F9D870BDF8C50D08BA
:10032000F8C50D08F8C50D08FCC50D0870B58607A1
:1003300047D0541E002A3ED0CAB2034601E0013C19
:1003400039D303F8012B9D07F9D1032C2CD9CDB259
:100350000F2C05EB052505EB054535D9A4F1100C4F
:1003600003F1100E1A462CF00F064FEA1C1CB6447F
:10037000C2E90055C2E9025510327245F8D10CF1BC
:10038000010214F00C0F04F00F0C03EB021213D057
:10039000ACF1040323F003030433134442F8045B79
:1003A0009342FBD10CF003042CB1C9B21C4403F8F6
:1003B000011BA342FBD170BD64461346002CF4D14F
:1003C000F9E703461446C0E71A46A446E0E700BF33
:1003D00000207047024A0349034800F0DDB900BF1E
:1003E0000000002015070008100000200C4B416899
:1003F000994210B5044601D000F08CF9A168094B70
:10040000994202D0204600F085F9E168064B9942F6
:1004100004D02046BDE8104000F07CB910BD00BFFC
:10042000547A0120BC7A0120247B012000207047EF
:100430002DE9F8432A4900252A4C04230822DFF835
:10044000B890C4F8381104F15C002946DFF8AC809C
:10045000254F264EE36025606566A561C4E9015518
:10046000C4E90455FFF762FF214B0822294604F135
:10047000C40063672567C4F8CC50C4F88050266375
:10048000C4E90849C4E90A87C4E91A55C4E91E55F4
:10049000FFF74CFF04F1680329460822C4F88830AE
:1004A00004F59670134BC4F8D850C4F8DC30C4F887
:1004B0003451C4F8E850C4E92398C4E92576C4E966
:1004C0003455C4E93855FFF731FF04F1D003C4E9CE
:1004D0003D98C4E93F76C4F8F030BDE8F88300BF2A
:1004E000D5030008547A0120450800086D0800086B
:1004F0000900010012000200DD07000805080008DD
:10050000F8B5254B0646D3F83831002B3DD0234FA4
:10051000D7E90134013B04D51DE05A1C04F16804FD
:1005200019D0B4F90C50013B002DF6D11C4B082218
:10053000294604F15C006566E3602560A561C4E9B5
:100540000155C4E90455FFF7F1FEC4E90D55C4E9AE
:1005500012552046F8BD3D680DB12F46D8E74FF43F
:10056000D671304609F056FD044688B10423056073
:100570000C302946254640F8083C4FF4D072A06064
:10058000FFF7D4FE3C602F46C2E7FFF751FFBEE7FE
:100590000C2338603360DCE7547A0120000000202F
:1005A0000100FFFF036A03B17047044B044AD3F80C
:1005B00038310262002BF7D13AE700BF547A0120AC
:1005C000ED030008704700BF704700BF024A0020DB
:1005D000024900F0E1B800BF00000020D10300088C
:1005E000024A0020024900F0D7B800BF00000020F6
:1005F0002D040008B1F90C302DE9F0411E070C461E
:1006000080463DD44A68002A55DDE56A002D34D085
:100610000022D8F80060216AC8F8002013F4805244
:1006200056D101234046A847451C024665D0B4F97F
:100630000C30E56A216A580705D56368D21A636BE6
:100640000BB1236CD21A00234046A847431C41D06B
:100650000023636023692360A389DF0400D56065FC
:10066000616BC8F8006041B104F14403994202D0C3
:10067000404609F0D3FC002363630020BDE8F0810D
:100680000E69002EF9D09B070D680E600CBF4B69F8
:100690000023AD1B8B600BE02B463246216A40469F
:1006A000A76AB847B0F1000CA5EB0C05664406DD5F
:1006B000002DF1DCE1E70A6C002AA6DCDDE7B4F9E5
:1006C0000C3043F040034FF0FF30A381BDE8F081D0
:1006D000626DB0E7D8F80010B4F90C301D29F0D8DD
:1006E0000B4ACA40D507ECD500226260226922601D
:1006F000DA04B5D50029B2D0B2E7D8F80030002B23
:1007000095D01D2B01D0162BD9D1C8F80060B4E7C5
:10071000010040200B69B3B110B5044682B008B1A6
:10072000036A5BB1B1F90C3013B9002002B010BDFF
:10073000204602B0BDE81040FFF75CBF0191FFF713
:1007400031FF0199EEE70020704700BFB8B10E4AB3
:1007500038B50369044615682BB10DB12B6A53B146
:10076000B4F90C300BB9002038BD21462846BDE84D
:100770003840FFF73FBF2846FFF714FFF0E7034A72
:100780000349044800F008B80C00002000000020D5
:1007900015070008100000202DE9F8434FF000096C
:1007A000074688461646D6E90154013D0FD4A38971
:1007B000012B08D9B4F90E3021463846013302D056
:1007C000C04749EA0009013D68346B1CEFD1366827
:1007D000002EE8D14846BDE8F88300BF10B50C46AE
:1007E000B1F90E1000F058F8002803DB636D0344E4
:1007F000636510BDA38923F48053A38110BD00BF9E
:10080000002070472DE9F0410C46B1F90C101F464D
:100810000546CB0516460BD421F480513B463246A3
:100820002846A181B4F90E10BDE8F04100F0CAB825
:10083000B4F90E100223002200F0AEF8B4F90C1047
:10084000EAE700BF10B50C46B1F90E1000F0A4F8AD
:10085000421CB4F90C3004D043F480536065A3818A
:1008600010BD23F48053A38110BD00BFB1F90E1059
:1008700000F000B838B50022064D044608462A604C
:1008800009F0B2FB431C00D038BD2B68002BFBD015
:10089000236038BD907B012038B50C468446114654
:1008A000074D1A460023204664462B6009F08EFB54
:1008B000431C00D038BD2B68002BFBD0236038BD13
:1008C000907B0120334B1B68834261D0C26970B5B5
:1008D0000546002A53D0D16891B100268C5944B105
:1008E00021462468284609F099FB002CF8D1EB69D1
:1008F000D9680436802EF1D1284609F08FFBEA69C9
:10090000116819B1284609F089FBEA699468002C3E
:100910003AD021462468284609F080FB002CF8D103
:10092000696911B1284609F079FBEA691AB11146E3
:10093000284609F073FB296B11B1284609F06EFBBC
:10094000696B11B1284609F069FBA96B11B1284602
:1009500009F064FBA96C11B1284609F05FFB696CD2
:1009600011B1284609F05AFBE96A11B1284609F08D
:1009700055FB2B6A3BB12846BDE8704018474169DA
:100980000029CFD1D7E770BD69690029CAD1CEE768
:10099000704700BF0C00002038B50C468446114655
:1009A000074D1A460023204664462B6009F028FBB9
:1009B000431C00D038BD2B68002BFBD0236038BD12
:1009C000907B012038B50C4684461146074D1A46E7
:1009D0000023204664462B606FF0CEF8431C00D005
:1009E00038BD2B68002BFBD0236038BD907B0120E5
:1009F00081F0004102E000BF83F0004330B54FEAD0
:100A000041044FEA430594EA050F08BF90EA020F3C
:100A10001FBF54EA000C55EA020C7FEA645C7FEACF
:100A2000655C00F0E2804FEA5454D4EB5555B8BFF2
:100A30006D420CDD2C4480EA020281EA030382EA63
:100A4000000083EA010180EA020281EA0303362DF5
:100A500088BF30BD11F0004F4FEA01314FF4801CC8
:100A60004CEA113102D0404261EB410113F0004FDA
:100A70004FEA03334CEA133302D0524263EB430391
:100A800094EA050F00F0A780A4F10104D5F1200E2F
:100A90000DDB02FA0EFC22FA05F2801841F100018A
:100AA00003FA0EF2801843FA05F359410EE0A5F15E
:100AB00020050EF1200E012A03FA0EFC28BF4CF08F
:100AC000020C43FA05F3C01851EBE37101F0004545
:100AD00007D54FF0000EDCF1000C7EEB00006EEB52
:100AE0000101B1F5801F1BD3B1F5001F0CD34908DC
:100AF0005FEA30004FEA3C0C04F101044FEA445233
:100B000012F5800F80F09A80BCF1004F08BF5FEAB9
:100B1000500C50F1000041EB045141EA050130BD99
:100B20005FEA4C0C404141EB0101013C28BFB1F5AB
:100B3000801FE9D291F0000F04BF01460020B1FAF6
:100B400081F308BF2033A3F10B03B3F120020CDAC9
:100B50000C3208DD02F1140CC2F10C0201FA0CF0A7
:100B600021FA02F10CE002F11402D8BFC2F1200C0C
:100B700001FA02F120FA0CFCDCBF41EA0C019040C2
:100B8000E41AA2BF01EB0451294330BD6FEA04040B
:100B90001F3C1CDA0C340EDC04F11404C4F12002F6
:100BA00020FA04F001FA02F340EA030021FA04F308
:100BB00045EA030130BDC4F10C04C4F1200220FA5F
:100BC00002F001FA04F340EA0300294630BD21FA9D
:100BD00004F0294630BD94F0000F83F4801306BF63
:100BE00081F480110134013D4EE77FEA645C18BF57
:100BF0007FEA655C29D094EA050F08BF90EA020FEE
:100C000005D054EA000C04BF1946104630BD91EAE5
:100C1000030F1EBF0021002030BD5FEA545C05D1E8
:100C20004000494128BF41F0004130BD14F5800427
:100C30003CBF01F5801130BD01F0004545F0FE419B
:100C400041F470014FF0000030BD7FEA645C1ABFD0
:100C5000194610467FEA655C1CBF0B46024650EA07
:100C6000013406BF52EA033591EA030F41F4002133
:100C700030BD00BF90F0000F04BF0021704730B5B9
:100C80004FF4806404F132044FF000054FF000018E
:100C900050E700BF90F0000F04BF0021704730B54F
:100CA0004FF4806404F1320410F0004548BF404224
:100CB0004FF000013EE700BF42004FEAE2014FEA79
:100CC00031014FEA02701FBF12F07F4393F07F4F54
:100CD00081F06051704732F07F4208BF704793F057
:100CE0007F4F04BF41F40021704730B54FF460746A
:100CF00001F0004521F000411CE700BF50EA01026D
:100D000008BF704730B54FF000050AE050EA010215
:100D100008BF704730B511F0004502D5404261EB85
:100D200041014FF4806404F132045FEA915C3FF4C6
:100D3000D8AE4FF003025FEADC0C18BF03325FEA63
:100D4000DC0C18BF033202EBDC02C2F1200300FA14
:100D500003FC20FA02F001FA03FE40EA0E0021FA39
:100D600002F11444BDE600BF70B54FF0FF0C4CF427
:100D7000E06C1CEA11541DBF1CEA135594EA0C0FD9
:100D800095EA0C0F00F0DEF82C4481EA030621EA14
:100D90004C5123EA4C5350EA013518BF52EA03354F
:100DA00041F4801143F4801338D0A0FB02CE4FF001
:100DB0000005E1FB02E506F00042E0FB03E54FF031
:100DC0000006E1FB03569CF0000F18BF4EF0010E29
:100DD000A4F1FF04B6F5007F64F5407404D25FEA25
:100DE0004E0E6D4146EB060642EAC62141EA5551D8
:100DF0004FEAC52040EA5E504FEACE2EB4F1FD0C1A
:100E000088BFBCF5E06F1ED8BEF1004F08BF5FEA97
:100E1000500E50F1000041EB045170BD06F0004649
:100E200046EA010140EA020081EA0301B4EB5C04F6
:100E3000C2BFD4EB0C0541EA045170BD41F48011EE
:100E40004FF0000E013C00F3AB8014F1360FDEBF13
:100E5000002001F0004170BDC4F10004203C35DAEF
:100E60000C341BDC04F11404C4F1200500FA05F372
:100E700020FA04F001FA05F240EA020001F0004213
:100E800021F0004110EBD37021FA04F642EB060189
:100E90005EEA430E08BF20EAD37070BDC4F10C04B3
:100EA000C4F1200500FA04F320FA05F001FA04F277
:100EB00040EA020001F0004110EBD37041F1000163
:100EC0005EEA430E08BF20EAD37070BDC4F120056E
:100ED00000FA05F24EEA020E20FA04F301FA05F2D6
:100EE00043EA020321FA04F001F0004121FA04F27E
:100EF00020EA020000EBD3705EEA430E08BF20EA4E
:100F0000D37070BD94F0000F0FD101F00046400087
:100F100041EB010111F4801F08BF013CF7D041EA09
:100F2000060195F0000F18BF704703F0004652000D
:100F300043EB030313F4801F08BF013DF7D043EADE
:100F40000603704794EA0C0F0CEA135518BF95EA94
:100F50000C0F0CD050EA410618BF52EA4306D1D11B
:100F600081EA030101F000414FF0000070BD50EA3A
:100F7000410606BF1046194652EA430619D094EAC4
:100F80000C0F02D150EA013613D195EA0C0F05D1AE
:100F900052EA03361CBF104619460AD181EA030102
:100FA00001F0004141F0FE4141F470014FF00000BA
:100FB00070BD41F0FE4141F4780170BD70B54FF055
:100FC000FF0C4CF4E06C1CEA11541DBF1CEA1355D5
:100FD00094EA0C0F95EA0C0F00F0A7F8A4EB0504B7
:100FE00081EA030E52EA03354FEA013100F08880AE
:100FF0004FEA03334FF0805545EA131343EA126377
:101000004FEA022245EA111545EA10654FEA00262B
:101010000EF000419D4208BF964244F1FD0404F5E4
:10102000407402D25B084FEA3202B61A65EB030540
:101030005B084FEA32024FF480104FF4002CB6EBFD
:10104000020E75EB030E22BFB61A754640EA0C007D
:101050005B084FEA3202B6EB020E75EB030E22BFBD
:10106000B61A754640EA5C005B084FEA3202B6EBFE
:10107000020E75EB030E22BFB61A754640EA9C00BD
:101080005B084FEA3202B6EB020E75EB030E22BF8D
:10109000B61A754640EADC0055EA060E18D04FEA4B
:1010A000051545EA16754FEA06164FEAC30343EAEB
:1010B00052734FEAC2025FEA1C1CC0D111F4801FB8
:1010C0000BD141EA00014FF000004FF0004CB6E7B1
:1010D00011F4801F04BF01430020B4F1FD0C88BF50
:1010E000BCF5E06F3FF6AFAEB5EB030C04BFB6EB5B
:1010F000020C5FEA500C50F1000041EB045170BD4E
:101100000EF0004E4EEA113114EB5C04C2BFD4EB7A
:101110000C0541EA045170BD41F480114FF0000EFE
:10112000013C90E645EA060E8DE60CEA135594EA7A
:101130000C0F08BF95EA0C0F3FF43BAF94EA0C0F7D
:101140000AD150EA01347FF434AF95EA0C0F7FF4F2
:1011500025AF104619462CE795EA0C0F06D152EA46
:1011600003353FF4FDAE1046194622E750EA41062A
:1011700018BF52EA43067FF4C5AE50EA41047FF43B
:101180000DAF52EA43057FF4EBAE12E74FF0FF3CA0
:1011900006E000BF4FF0010C02E000BF4FF0010C71
:1011A0004DF804CD4FEA410C7FEA6C5C4FEA430CEA
:1011B00018BF7FEA6C5C1BD001B050EA410C0CBF39
:1011C00052EA430C91EA030F02BF90EA020F00209B
:1011D000704710F1000F91EA030F58BF994208BF02
:1011E00090422CBFD8176FEAE37040F001007047BF
:1011F0004FEA410C7FEA6C5C02D150EA013C07D116
:101200004FEA430C7FEA6C5CD6D152EA033CD3D060
:101210005DF8040B704700BF8446104662468C465A
:101220001946634600E000BF01B5FFF7B7FF00288D
:1012300048BF10F1000F01BD4DF808EDFFF7F4FFB6
:101240000CBF012000205DF808FB00BF4DF808ED41
:10125000FFF7EAFF34BF012000205DF808FB00BF64
:101260004DF808EDFFF7E0FF94BF012000205DF886
:1012700008FB00BF4DF808EDFFF7CEFF94BF01203B
:1012800000205DF808FB00BF4DF808EDFFF7C4FF34
:1012900034BF012000205DF808FB00BF4FEA410C7D
:1012A0007FEA6C5C02D150EA013C0AD14FEA430C60
:1012B0007FEA6C5C02D152EA033C02D14FF000009D
:1012C00070474FF0010070474FEA410212F50012DB
:1012D00015D211D56FF47873B3EB625212D94FEA7D
:1012E000C12343F0004343EA505311F0004F23FA67
:1012F00002F018BF404270474FF00000704750EABC
:10130000013005D111F0004008BF6FF00040704778
:101310004FF00000704700BF4A0011D212F50012D2
:1013200011D20DD56FF47873B3EB62520ED44FEA3D
:10133000C12343F0004343EA505323FA02F07047BD
:101340004FF00000704750EA013002D14FF0FF30FB
:1013500070474FF0000070474FEA4102B2F1E0439E
:1013600024BFB3F5001CDCF1FE5C0DD901F0004C8C
:101370004FEAC0024CEA5070B2F1004F40EB8300DC
:1013800008BF20F00100704711F0804F21D113F108
:101390003872BCBF01F00040704741F480114FEA41
:1013A0005252C2F11802C2F1200C10FA0CF320FACA
:1013B00002F018BF40F001004FEAC1234FEAD323E7
:1013C00003FA0CFC40EA0C0023FA02F34FEA430351
:1013D000CCE77FEA625307D150EA01331EBF4FF0DA
:1013E000FE4040F44000704701F0004040F0FE40F5
:1013F00040F40000704700BF7BB972B90029BEBF3E
:1014000000204FF0004106E008BF00281CBF6FF02D
:1014100000414FF0FF3000F0E7B9ADF1080C6DE985
:1014200004CE002909DB002B1ADB00F05DF8DDF8A3
:1014300004E0DDE9022304B07047404261EB410162
:10144000002B1BDB00F050F8DDF804E0DDE902239F
:1014500004B0404261EB4101524263EB43037047E9
:10146000524263EB430300F03FF8DDF804E0DDE9AE
:10147000022304B0404261EB41017047524263EBEA
:10148000430300F031F8DDF804E0DDE9022304B0A5
:10149000524263EB4303704753B94AB9002908BF6E
:1014A00000281CBF4FF0FF314FF0FF3000F09CB917
:1014B000ADF1080C6DE904CE00F016F8DDF804E09B
:1014C000DDE9022304B0704780EA104346F6961225
:1014D00083EA132383EA131303F00F0342FA03F0A2
:1014E00000F00100704700BF2DE9F04F099D0E4646
:1014F00004460F46002B47D18A429446B2FA82F343
:101500005AD943B102FA03FCC3F120029F409C4028
:1015100020FA02F217434FEA1C461FFA8CFE220CF7
:10152000B7FBF6F106FB117701FB0EF042EA07422A
:10153000904208D91CEB020201F1FF3702D290421F
:1015400000F23C813946121AA4B2B2FBF6F006FB57
:10155000102200FB0EFE44EA0244A64508D91CEB0B
:10156000040400F1FF3202D2A64500F22A8110469F
:1015700040EA0140A4EB0E0400211DB1DC40002331
:10158000C5E90043BDE8F08F8B4205D90DB1C5E92F
:10159000000100210846F5E7B3FA83F100294FD195
:1015A000B342C0F00281824240F2FF800846002D23
:1015B000E8D0C5E90047E5E7002B40F0AF808A1A84
:1015C0004FEA1C4E1FFA8CF70121B2FBFEF60EFB10
:1015D0001620220C42EA004207FB06F090420FD987
:1015E0001CEB020206F1FF382CBF4FF001094FF04F
:1015F0000009904203D9B9F1000F00F0DC804646A3
:10160000121AA4B2B2FBFEF00EFB102200FB07F789
:1016100044EA0244A7420FD91CEB040400F1FF3254
:101620002CBF4FF0010E4FF0000EA74203D9BEF1C0
:10163000000F00F0C9801046E41B40EA06409CE71A
:10164000C1F120048B4006FA01FC00FA01FE22FAE7
:1016500004F7E6408A401F4320FA04F34FEA174894
:1016600043EA0C031FFA87FC4FEA1349B6FBF8F074
:1016700008FB106649EA064600FB0CF9B1450ED995
:10168000BE1900F1FF3A2CBF4FF0010B4FF0000BD9
:10169000B14503D9BBF1000F00F0A2805046A6EB84
:1016A00009061FFA83F9B6FBF8F308FB136603FB80
:1016B0000CFC49EA0646B4450ED9BE1903F1FF38C1
:1016C0002CBF4FF001094FF00009B44503D9B9F11F
:1016D000000F00F08280434643EA0040A6EB0C0670
:1016E000A0FB028C66454346E14602D307D1C645BE
:1016F00005D2B8EB02036CEB070C0138E1465DB193
:10170000BEEB030266EB090606FA04F422FA01F3C3
:10171000CE401C43C5E90046002133E702FA03FC32
:10172000C3F1200299409C40D6404FEA1C4E20FA5B
:1017300002F21FFA8CF7B6FBFEF00A430EFB1066AE
:10174000110C41EA064100FB07F68E420ED91CEB54
:10175000010100F1FF382CBF4FF001094FF00009E3
:101760008E4202D9B9F1000F34D04046891B92B2A3
:10177000B1FBFEF60EFB161142EA014206FB07F131
:1017800091420ED91CEB020206F1FF382CBF4FF03C
:1017900001094FF00009914202D9B9F1000F16D0AA
:1017A0004646521A46EA00410FE7841A66EB0302E6
:1017B00001201746FBE6023E624421E702396244FB
:1017C000C1E664440238D3E66444023834E7023E9A
:1017D0006244E6E702386144C8E7023B3E447BE7E7
:1017E00002383E445BE700BF704700BF0CB430B521
:1017F0009DB000246FF0004520AB0291069109498D
:1018000053F8042B059102A901931B9404950795A5
:1018100002F014FA029B1C701DB0BDE8304002B00B
:10182000704700BF0802FFFF0EB430B56FF00044F0
:101830009CB001460B4D1FAB049407940A4C53F81F
:10184000042B029128680193CDE90541002402A9E7
:101850001B9402F0F3F9029B1C701CB0BDE83040F1
:1018600003B070470C0000200802FFFF01292DE99A
:10187000F0415DD94FF0010800244FF0FF35C64616
:10188000434608E0A3EB05081C464FF0010E04EBAD
:101890000E03994210D900EB050CC75C1CF80E60D2
:1018A000B742EFD332D04FF001082546C646444434
:1018B00004EB0E039942EED8012700244FF0FF36C7
:1018C000C2F80080BE463B4607E09F1B1C464FF017
:1018D000010E04EB0E03994210D900EB060C10F830
:1018E00003801CF80EC0E045EFD814D0012726462F
:1018F000BE463C4404EB0E039942EED80136681C08
:10190000864201D330461760BDE8F081C64507D056
:101910000EF1010EBBE7BE4506D00EF1010ED8E771
:1019200074444FF0010EB2E774444FF0010ED0E75B
:1019300001270026E6E700BF2DE9F04F174687B0E4
:101940008046894605AA194638461C46FFF78EFF91
:10195000059B82463846F9180293524604F08AF8ED
:1019600000285ED144F400630646A9EB0401054655
:101970000193CAF1010B029BE31A0393A9421AD304
:101980005645334638BF53469C4222D9581EEA1862
:101990003844424402E001339C421AD012F801CB91
:1019A00010F801EFE645F6D09C4212D95D440026BE
:1019B0001D44A942E4D2019908EB090004F088F81B
:1019C0008144A9EB0401A942DAD2002007B0BDE8A6
:1019D000F08F56450AF1FF336FD205EB0A0207EB91
:1019E0000A000095424402E09E4211D0734610F86E
:1019F00001CD03F1FF3E12F8015DAC45F4D0009D2E
:101A0000013301369E4207D8029B039E1D44B5E771
:101A10000136009D9E42F7D908EB050007B0BDE8EE
:101A2000F08FA4EB0A030025A9EB04010AF1FF36AD
:101A30005345CAF1010B38BF534601330193059357
:101A400044F400630093A94216D3544520D905EB12
:101A50000A02B8195346424402E001339C4217D0AF
:101A600012F801CB10F801EFE645F6D09C420FD9F1
:101A70005D441D44A942E8D2009908EB090004F036
:101A800027F88144A9EB0401A9429ED35445DED82E
:101A9000BAF1000FC0D005EB0A0007EB0A02404480
:101AA00001E0BB42B8D012F801ED10F801CD1346A9
:101AB000E645F6D0019B1D44C5E75346A1E700BFAC
:101AC0002DE9F04FADF21C4D934680468A4605AA9B
:101AD000194658461C46FFF7C9FE134681460DF2CB
:101AE000144243F8044F9342FBD174B1601E0BF1D2
:101AF000FF3206AD584412F8011FA31A824203F1C7
:101B0000FF335B4445F82130F5D1059B4A465846E2
:101B10000BEB0301019303F0ADFF002877D144F4F0
:101B200000630746AAEB040E661E05460293AE4507
:101B300010D308EB050C06AA1CF8063052F8233027
:101B4000BBB11FB1019A9A4288BFA31A1D44002756
:101B5000AE45EED208EB0A00029903F0B9FF8244C9
:101B6000AAEB040EAE45E4D200200DF21C4DBDE8F8
:101B7000F08F4F453B4638BF4B469E4218D9591E01
:101B8000EA1800955944424402E001339E420ED0C7
:101B900012F8010B11F8015F8542F6D09E42009DBC
:101BA00006D9C9F1010200272A44D518BFE7009DD4
:101BB0004F4509F1FF3380F0818005EB09020BEB03
:101BC000090100954244CDF80C9002E09F4213D0E9
:101BD0004B4611F8015D03F1FF3912F8010D854202
:101BE000F4D0009D0133DDF80C9001379F4209D8F5
:101BF000019B1D44E71A9AE70137009DDDF80C9020
:101C00009F42F5D960460DF21C4DBDE8F08FA4EB64
:101C100009030025AAEB040E661E4B4538BF4B4650
:101C200001330193059344F400630093AE4509D357
:101C300008EB050006AA835D52F823306BB11D4402
:101C4000AE45F5D208EB0A00009903F041FF82444B
:101C5000AAEB040EAE45EBD286E7B14517D209F1E7
:101C6000FF3105EB09024B465944424402E001337F
:101C7000B3420CD012F8017B11F801CFBC45F6D06D
:101C80009E4204D9C9F101022A44D518CEE7B9F120
:101C9000000F3FF46AAF05EB09010BEB0902414469
:101CA00002E05B453FF461AF12F801CD11F8017D10
:101CB0001346BC45F5D0019B1D44C1E74B4694E754
:101CC0002DE9F0410D46097890B00446002954D022
:101CD0006A78002A75D0AB78002B52D0E8782E684D
:101CE000002800F085802B79002B6FD0284600F06B
:101CF0003BFD0646204646F4007103F0E9FE8642AD
:101D00004ED8FE2E00F28F80801B4022711C2718B7
:101D10006846FEF70BFB86B16A1E5FFA86FC9019D7
:101D200012F8013F03F03F03A91A824203F1400376
:101D300061446B4403F8401CF2D1013CA35D03F005
:101D40003F0340336B4413F8403C1C44A74203D28A
:101D50002BE04444A74228D314F806C03246294653
:101D600020460CF03F0C0CF140030DEB030C1CF86B
:101D7000408C03F07FFE0028EBD1204610B0BDE878
:101D8000F081007842EA014250B140EA0343214623
:101D900014F8010F9A4244D00028F6D19A4240D05C
:101DA0000024204610B0BDE8F081BB5DB819002BBF
:101DB000F6D04FF4006103F08BFE0744A742BCD27B
:101DC000EEE710B0BDE8F04100F0B4B82278002A88
:101DD000E6D031BA01E0994208D042EA0323204616
:101DE00014F8012F002AF6D19942D9D1C41EC4E7B4
:101DF000120442EA0162217842EA03230029CFD08B
:101E0000024600E049B141EA0200254614F8011FEC
:101E1000B3EB002F4FEA0022F4D19342C0D1AC1EA5
:101E2000ABE74C1EA9E7014633462A46204610B0D0
:101E3000BDE8F04144E600BF38B5124B04461D68CA
:101E40002A6B1AB10023C2E9044338BD182008F0F8
:101E5000D9F80246286378B10B480C4B0C49C2E90B
:101E600000030B2301209160002193810023C2E92C
:101E70000401C2E9044338BD064B4621064800F080
:101E8000C1F800BF0C0000200E33CDAB34126DE65C
:101E9000ECDE0500809C0C08989C0C081C4B10B5CF
:101EA0001C68226B8AB113691A4954691A4803FBEA
:101EB00001F100FB0411A3FB0030013341EB0001F1
:101EC00021F00040C2E9043110BD182008F09AF852
:101ED0000246206388B1114C114B0E481149C2E9EA
:101EE00000430B239160014693810F4B9FED067BCE
:101EF00082ED047BC2E9043110BD0C4B52210C4829
:101F000000F080F8AFF30080010000000000000046
:101F10000C0000202DF451582D7F954C0E33CDAB85
:101F200034126DE6ECDE05002E7F954C809C0C088B
:101F3000989C0C0811F0FF01034600F0030239D011
:101F40008ABB10B501EB012E02680EEB0E4EA2F11A
:101F500001338EEA020423EA0203A4F1013222EAE9
:101F60000402134313F0803F0FD150F8044F84EA6A
:101F70000E0CA4F10133ACF1013223EA040322EA8E
:101F80000C02134313F0803FEFD0037823B936E0FF
:101F900010F8013F002B32D09942F9D110BD8A428E
:101FA00028D09A0729D01A7818460133002AF6D18A
:101FB00010467047CAB90268A2F1013323EA02034E
:101FC00013F0803F08D150F8042FA2F1013323EA27
:101FD000020313F0803FF6D003785BB110F8013FA5
:101FE000002BFBD17047990705D0184613F8012B39
:101FF000002AF8D170471846DDE71846A1E71846D1
:1020000010BD00BF0A4D14461A4603462E680D4601
:1020100000B5F06885B044B106490095CDE90114DA
:10202000054902F089FF02F0DFFB04490C46F4E7A2
:102030000C000020C49C0C08D49C0C0820970C08B1
:1020400008B513460022FFF7DDFF00BF2DE9F04F72
:102050001D4640EA02039BB083469B07019240F075
:102060000783171F18BF0127019B9A085B00059281
:10207000002209930792019A062902FB01F35A44B0
:102080000BEB03000892049040F26A8101984FEA3A
:1020900051080729A3EB000300FB08B80BEB03046E
:1020A00013D0282900F200822646DA4641465046DF
:1020B0000292A8470028029AC0F2E68131464046C3
:1020C0000292A8470028029A4BDD002F53D1DBF87B
:1020D0000030D8F80010CBF80010C8F80030089B8A
:1020E0004FF0000A03921E460693019BD046A2467B
:1020F000C3F10009A64233465ED8594630460296DF
:10210000A8470028029B40F3FB8052460293C24638
:1021100090460CE02368D8F800102160C8F8003021
:10212000C8444FF0010A4C44A64200F29080594640
:102130002046A84700282EDBF5D1002FEAD0012F3A
:1021400077D0019A4146234604EB020E1A780878AC
:1021500003F8010B01F8012BAEEB0302002AF5DCBA
:10216000DEE731465046A8470028029AC0F29A811D
:10217000B046002FABD0012F00F00F825B46089EC7
:10218000197898F8000003F8010B08F8011BF11A00
:102190000029F5DCA3E7C246029B002F40F0A18096
:1021A0003368226832602360019B1E444C444FF028
:1021B00001083346A642A0D95146C246039A884632
:1021C000BAF1000F48D0069AB11AA2EB0B028A426C
:1021D000A8BF0A46002A40F02781049AA8EB04040D
:1021E0000198A2EB0802121AA24228BF2246002A36
:1021F00040F0B181049BA142A3EB040605D3224623
:1022000033460C465E4611469B46019B994240F27E
:10221000F180079A072A00F28E81B4FBF3F4B1FB38
:10222000F3F11AAB03EBC20343E91064531C0793A9
:1022300021E7C4462046059B013B0268DCF80010FC
:10224000002B40F8041B4CF8042BF5DC68E7DDE9B3
:102250000232BAF1000FB6D1089B04998B4233D2F7
:10226000019B1646DDF814905C42DDF824805E4543
:1022700025D9029607E0DAF800203168CAF8001084
:1022800032605E451AD9B246264451463046A847C8
:10229000002813DD002FEED0012F54D0324606EB7C
:1022A000080C9AF8003011780AF8011B02F8013B7B
:1022B000ACEB0A03002BF4DC5E45E4D8029E019BE4
:1022C0001E44049B9E42D2D3079B002B00F08280C9
:1022D000079B1AAA013B079302EBC30353E910B112
:1022E000C9E6012F1FD0019A1644224619781078AA
:1022F00003F8010B02F8011BF11A0029F6DC55E77F
:1023000002D0019B1E44F5E6002F7CD1069932686D
:102310000B680A603360019B1944019B4FF0010870
:1023200006911E44E6E62046059AA446013A19683D
:102330000468002A43F8044B40F8041BF6DC019BB8
:1023400064461E4432E730464A46013ADAF8003025
:102350000168002A4AF8041B40F8043BF5DC90E7CA
:102360008242B1D2019B1646DDF814905C42DDF842
:102370002480B34525D2029607E0DAF800203168C0
:10238000CAF8001032605E451AD9B246264451465A
:102390003046A847002813DD002FEED0012F1CD0B7
:1023A000324606EB080C9AF8003011780AF8011B47
:1023B00002F8013BACEB0A03002BF4DC5E45E4D8E9
:1023C000029E019B1E44049B9E42D2D3079B002B7E
:1023D0007FF47EAF1BB0BDE8F08F30464A46013A2D
:1023E000DAF800300168002A4AF8041B40F8043B80
:1023F000F5DCC8E7019B9C427FF666AF019BB346C4
:10240000B4FBF3F137E6012F00F0B680069A01998C
:102410005118107893F800C002F801CB03F8010BB3
:10242000881A0028F5DC78E7022FA6EB020040F0BE
:10243000E0805A44DC469CF800E090F800900CF8EC
:10244000019B00F801EBA2EB0C0EBEF1000FF2DCD9
:10245000049AA8EB04040198A2EB0802121AA24203
:1024600028BF2246002A3FF4C5AE0498A0EB020C18
:10247000324418789CF8006003F8016B0CF8010BEB
:10248000D01A0028F5DCB5E631464046A8470028BA
:10249000029AFFF61AAE31465046A8470028029A23
:1024A000FFF666AED04610E6C908029200FB01F6C0
:1024B00058460BEB060A73000BEB46095146039393
:1024C000A8470028029AC0F2C480494650460292AA
:1024D000A8470028029A75DDA8EB0603414603923F
:1024E00008EB060918460293A8470028039AC0F291
:1024F000A080494640460392A8470028039A59DD28
:1025000073000292A4EB03094E4448463146A847A3
:102510000028029A5EDB214630460292A847002836
:10252000029A3FF7C3AD21464846A8470028029AC1
:102530005DDB2646BAE5019A58462B469046B1FB2C
:10254000F2F1FFF783FD44457FF6C2AE019BB3462F
:10255000B4FBF3F18FE50498022FA0EB020C87D0B7
:102560009208013A1868DCF80060002A43F8046B0E
:102570004CF8040BF5DC3DE6DDE90520A446013A04
:1025800001681C68002A40F8044B43F8041BF6DC81
:1025900006996446019B1944BFE65846059B013BDA
:1025A0000168D8F80060002B40F8046B48F8041B61
:1025B000F5DC94E549460298A8470028039A45DBD4
:1025C000C8469DE749465846A8470028029A4DDB71
:1025D000CA4681E721463046A8470028029AFFF6FE
:1025E00065AD21464846A8470028029AA1DB4E4621
:1025F0005CE592085E468E469C46013A3368016867
:10260000002A46F8041B40F8043BF6DC049AA8EBC9
:10261000040401987146A2EB08026346121AA24212
:1026200028BF2246002A3FF4E5AD0498A0EB020C37
:1026300096E749464046A8470028039AFFF660AF50
:1026400049460298A8470028039AB9DBDDF80880BC
:1026500056E749465046A8470028029AFFF63CAF85
:1026600049465846A8470028029AB1DBDA4633E7C4
:102670000227F9E40028B8BF4042704710B500298E
:102680001B4C9AB024682DDB009004904FF402702C
:10269000ADF80C004FF00000199013D001394FF63F
:1026A000FF70029105916946ADF80E00204601F0D9
:1026B000C5FA421C01DA8B232360009B00221A70AA
:1026C0001AB010BD4FF6FF70029105916946ADF842
:1026D0000E00204601F0B2FA431C01DA8B2323607E
:1026E0001AB010BD8B234FF0FF302360F8E700BF16
:1026F0000C00002030B514469BB00546002C2EDBA4
:102700001A464FF402730091ADF80C304FF00003FD
:102710000491199313D04FF6FF73013C6946ADF84D
:102720000E301E9B0294059401F088FA421C01DAD7
:102730008B232B60009B00221A701BB030BD4FF61C
:10274000FF7369460294ADF80E301E9B059401F0AC
:1027500075FA431C01DA8B232B601BB030BD8B2331
:102760004FF0FF302B60F8E720F0030110F003007A
:10277000C0F1000051F8043B00F1040C4FEACC0C0E
:102780006FF000021CBF22FA0CF213434FF0010C51
:102790004CEA0C2C4CEA0C4CA3EB0C0222EA030290
:1027A00012EACC1204BF51F8043B0430F4D0C2F159
:1027B000000102EA0102B2FA82F2C2F11F0200EB4A
:1027C000D2007047830710B5044610D10268A2F109
:1027D000013323EA020313F0803F08D150F8042F9D
:1027E000A2F1013323EA020313F0803FF6D003780D
:1027F0001BB110F8013F002BFBD100F003F820467D
:1028000010BD00BF80EA0102844612F0030F4FD1D1
:1028100011F0030F32D14DF8044D11F0040F51F8AF
:10282000043B0BD0A3F101329A4312F0803F04BF66
:102830004CF8043B51F8043B16D100BF51F8044B4F
:10284000A3F101329A4312F0803FA4F101320BD17F
:102850004CF8043BA24312F0803F04BF51F8043B04
:102860004CF8044BEAD023460CF8013B13F0FF0F61
:102870004FEA3323F8D15DF8044B704711F0010F94
:1028800006D011F8012B0CF8012B002A08BF704765
:1028900011F0020FBFD031F8022B12F0FF0F16BF5C
:1028A0002CF8022B8CF8002012F47F4FB3D1704724
:1028B00011F8012B0CF8012B002AF9D1704700BF49
:1028C0002DE9F04F0E46002183462DED028B9DB081
:1028D0000792002218910021CDE904123246914658
:1028E000179212F801ABBAF12D0F5FD801A151F880
:1028F0002AF000BF432A0008AD290008AD290008CE
:10290000AD290008AD290008AD290008AD2900084F
:10291000AD290008AD290008DF280008DF280008DD
:10292000DF280008DF280008DF280008AD2900089C
:10293000AD290008AD290008AD290008AD2900081F
:10294000AD290008AD290008AD290008AD2900080F
:10295000AD290008AD290008AD290008AD290008FF
:10296000AD290008AD290008AD290008AD290008EF
:10297000AD290008DF280008AD290008AD290008AE
:10298000AD290008AD290008AD290008AD290008CF
:10299000AD290008AD290008AD290008AD290008BF
:1029A000B32F0008AD290008CD2F0008002208929F
:1029B000BAF1300F00F0848000230993AAF13003AC
:1029C000092B00F23D8400274846B8463C460130BA
:1029D000082C07EB870204F1010408EB880117902B
:1029E00090F800A0CCBF03EB420703EB4108AAF12B
:1029F0003003092BEBD90122A94902F0BBFC70BBC3
:102A0000179B0A945A1C0C9017925B78A3F1300222
:102A1000092A09D8013092461799002A40F0EB8420
:102A20004B1C17934B78F1E74FF0010A23F020027B
:102A3000452A40F0B88244EA0003099A134340F063
:102A40005982079B9FED948B03B11E60B0EE480A3C
:102A5000F0EE680A1DB0BDEC028BBDE8F08F2AF0E5
:102A60002002002053460A94452A82460C9000F02A
:102A700041821090002C3AD1099A024340F08082A2
:102A8000BAF1000FDDD1692B00F0DF8400F324835D
:102A9000492B00F0DA844E2BD3D1824917A802F0DB
:102AA000EFFE0028CDD0179B1B78282B00F09B85CC
:102AB0007D4803F011FAB0EE408AF0EE608A61E2E0
:102AC00099F8012002F0DF02582A00F04D844B46AD
:102AD0000133179393F800A0BAF1300FF8D099465C
:102AE000BAF1000F00F04C820123099366E70A9ABD
:102AF0004046A2461346002A08BF23460C9A102CD3
:102B00000A93109BA8BF4FF0100A9B1A0B93FEF775
:102B1000B1F8092C02460B46CDE9042316DD634BC0
:102B200003EBCA0353E91223FEF71EF902463846A7
:102B30000F461646FEF79EF802460B4630463946CB
:102B4000FDF75CFF0F2CCDE9040124DC0B9B002B6F
:102B500000F0B7830B9B40F3AD82162B40F39284B9
:102B6000C4F125030B9A934215DBC4F10F044F4EB9
:102B700006EBC401DDE90423D1E90001FEF7F4F816
:102B80000B9B1C1B06EBC406D6E90023FEF7ECF8F2
:102B900041EC180BF6E1A4EB0A0A0B9B9A44BAF13C
:102BA000000F40F32B821AF00F000AD03F4901EBCF
:102BB000C001DDE90423D1E90001FEF7D5F8CDE934
:102BC00004013AF00F0A46D0BAF59A7F00F3678401
:102BD000BAF1100F4FEA2A1640F3CC85344D4FF06E
:102BE000000C2F46E246DDE9042316F0010F1046E3
:102BF000194607D0D7E90023FEF7B6F84FF0010CCD
:102C000002460B4676100AF1010A0837012EECD174
:102C1000BCF1000F01D0CDE90423059B05EBCA01EF
:102C2000A3F154730593DDE90423D1E90001FEF714
:102C30009BF8204B0A460B40CDE904011E498B420C
:102C400000F22D841D498B4240F2E0844FF0FF32A8
:102C50001B4BCDE904230023099323460A9A4946D6
:102C60005846CDF8008003F00BFA1390002800F0CE
:102C70001684109A4FF000090C9BCA464E469B1AC8
:102C80000B9A002AA8BF00230A9322EAE273129348
:102C9000F1E000BFAFF30080000000000000000082
:102CA000D4430C08A8740C0820970C08187F0B0854
:102CB00008800B080000F07F0000A07C0000907CE2
:102CC000FFFFEF7FD21A1F2AA5EB020500F37582E2
:102CD00001230024934010932F444D44099BA945A0
:102CE0001F444B46A8BF2B46BB42A8BF3B46002B08
:102CF00003DDED1AFF1AA9EB03090A9B002B00F371
:102D0000FF81002D00F315820B9B002B00F34782FF
:102D1000002F00F33882B9F1000F08DD51464A4612
:102D2000584603F091FB8246002800F03582424667
:102D30001899584603F01EFC0646002800F02C8225
:102D40000023C2685146C3600C9203F0F1FB0028D7
:102D5000C0F29084DDF8149000F0F58351463046BF
:102D600003F0B8FD00224FF0804355EC104B204695
:102D70002946FEF775FA002800F0B2810C9B002B63
:102D800040F02282049B002B40F01B83C9F3130305
:102D9000002B40F099820022934B20462946FEF7F3
:102DA00055FA002840F0C6830022904B2046294661
:102DB000FDF7DAFF0A4601460E9002F10043CDE925
:102DC00010120F938A4F8B4B09EA07079F42DDE9E8
:102DD0000E4500F00582099B13B3B7F1D46F1FD8DD
:102DE0007DA3D3E90023DDE91001FEF739FAA0B194
:102DF000DDE91001FEF790FA012838BF0120FDF748
:102E000039FF0C9BCDE91001002B40F0EF8201F15E
:102E1000004314901593DDE9144505F1D663DD1BDD
:102E2000B0EE480AF0EE680A03F064FC204629463A
:102E300053EC102BFDF798FF53EC182BFDF7DEFD3C
:102E40000C46CDE904016A4B2340BB4203D1099BE8
:102E5000002B00F065821899584603F09FF8414610
:102E6000584603F09BF85146584603F097F8314610
:102E7000584603F093F8139C5846616803F04EF8E7
:102E80008046002800F08881226904F10C010C3092
:102E90000232920001F09AFF1AAA19A958469DED34
:102EA000048BB0EE480AF0EE680A03F0B3FC189009
:102EB000002800F047810121584603F08DF9824631
:102EC000002800F06981199B002BC0F257810A9AF3
:102ED000129F03EB0209099A1A9D9B1A464A2B443A
:102EE000C5F13605013B9342FFF6ECAE0123002409
:102EF0001093F1E6179E731C179373782B2B00F039
:102F00009C812D2B52D14FF0010EB31C1793B37837
:102F1000A3F1300CBCF1090F00F24B81302B179A52
:102F20000AD1013217921378302BFAD0A3F1310174
:102F3000082938D8A3F1300C511C17915378A3F10C
:102F40003005092D00F2968201310CEB8C0C1791A3
:102F500003EB4C0C0B78ACF1300CA3F13005092DD0
:102F6000F2D9891A082940F3858244F61F6210922B
:102F7000BEF1000F3FF47EAD109A5242109279E5F7
:102F80009FED178B079A0AB1179B1360089B002BC4
:102F90003FF45CAD18EE901A18EE102A01F10043D0
:102FA00043EC182B52E50022109263E54FF0000E1F
:102FB000AEE70022089209F10102179299F801A0E8
:102FC000BAF1000F3FF43DAD9146F1E401220892C1
:102FD000F1E700BFAFF300800000C0FFFFFFDF415B
:102FE00000000000000000000000F03F0000E03F93
:102FF0000000F07F0000E07F02FCFFFF3FF42BAEFB
:10300000CAF1000616F00F020AD0BD4B03EBC20353
:10301000DDE90401D3E90023FDF7D0FFCDE9040188
:1030200036113FF418AE1F2E3EDC16F01003B54FDC
:103030004FF0000C18BF6A230993DDE90423F5075C
:103040001046194607D5D7E90023FDF78DFE4FF04E
:10305000010C02460B46761007F10807EFD1BCF1D0
:10306000000F01D0CDE90423099BA3B1DDE90401E0
:10307000C1F30A52C2F16B03002B0ADD1F2B40F390
:103080009F830020342B049040F3AC834FF05C739B
:1030900005936A23099300220023DDE90401FEF76A
:1030A000CBF800283FF4D9AD22239FED8D8BCBF8D0
:1030B000003067E71633FFF66EAD0C9B109A9A1A34
:1030C0008F4B03EBC203DDE90401D3E90023FDF7D5
:1030D00075FF41EC180B55E76E2B3FF4DEACB0E406
:1030E000894B204629460022FDF73EFE0C9BCDE988
:1030F0001001002B6FD101F100430E900F9361E698
:1031000051461A46584603F02FF98246002843D00C
:103110000146189A584603F075F800283CD00C90E8
:103120005846189902F03AFF0C9B002D18937FF730
:10313000EBAD2A461899584603F086F918900028F6
:103140007FF4E2ADB146064622239FED678BCBF8B4
:1031500000303146584602F021FF4146584602F001
:103160001DFF5146584602F019FF1399584602F0C8
:1031700015FF4946584602F011FF03E7129ADDF8A1
:103180002890D71AA7E641463A46584603F05CF91C
:10319000804600287FF4BFADB146189ED4E7414673
:1031A000129A584603F0E0F8804600287FF4B0AD4C
:1031B000F2E70022179610925CE4544CE41A0123C3
:1031C00003FA04F4109387E59FED497B8DED0E7BA8
:1031D0008DED107BF6E59DED107B8DED0E7BF1E521
:1031E000A9F15473DFF834910593DDE9044545EC0A
:1031F000104B03F07FFADDE90E2351EC100BFDF7C5
:10320000B3FD2B462246FDF7F9FB414B01EA0909C4
:103210009945CDE9040140F2E58018EE902A03F1CA
:1032200054739A4203D118EE103A0133B4D04FF0E0
:10323000FF33384CCDE904340DE64FF0000E64E660
:1032400001223549484602F095F80A9050B1002213
:103250005346174690461046144692460A920C92E0
:10326000FFF7E4BB17994B1C17934B78302B40F0BA
:103270005F818A1C1046179201320378302BF9D0F7
:10328000401A0138A3F13102082A11D8DDF85C9008
:103290004FF00008A3F1300A0124431C4946474679
:1032A0000C9308EB880800200AEB4808FFF7B8BB2E
:1032B00000224FF0010A1446904617460C92FFF781
:1032C000B5BB9DED048B5DE69FED0B7B8DED0E7B1D
:1032D0009FED077B8DED107B74E500BFAFF30080A1
:1032E0000000000000000000000000000000F07F6F
:1032F000000000000000F03F000000000000F0BFF0
:10330000187F0B08D87C0B080000E03FE2FBFFFFB2
:10331000FFFF9F7CFFFFEF7FD4430C080000F07F8E
:10332000DDE9100104F044FBC4F31304FDF7EEFCE7
:1033300002460B46DDE91001FDF75EFB0C9D049F84
:1033400002460B463D432543CDE90C2327D1C7A3B5
:10335000D3E90023FDF77AFF00283FF47CAD9DED13
:10336000048BB146189EF4E6029317A9089B5846B1
:10337000B54A019318AB009319AB00F0E7FD10F0CC
:103380000F0604463FF4FCAD062E40F08E8009F196
:10339000010300229FEDA08B08921793F2E5A0A3F2
:1033A000D3E90023FDF752FF0028D8D1DDE90C0155
:1033B0009DA3D3E90023FDF767FF00283FF44BAD41
:1033C000CDE7049B012B7FF47FAFB9F1000F7FF4B1
:1033D0007BAFB146189C222326469FED8F8BCBF8FE
:1033E0000030B6E601F1547405942CE59DED107B98
:1033F0008DED147B0FE5012840F3388204EB000EBD
:103400000EF1FF3C03E04FEA450864450BD0082C61
:1034100008EB880504F10104F5DD07EB8703102CA8
:10342000D8BF5F00F1E774460C9BBCF1080F034462
:103430000C937FF736AF102C4FF00000DCBF07EB8A
:10344000870702EB4707FFF7EBBA804917A802F09E
:1034500017FA00283FF4F5AA179B17A87C49013BEF
:10346000179302F00DFA10B9179B013317939FEDD4
:10347000708B87E544F61F629445A8BF9446CDF84B
:1034800040C075E50B98734901EBC001DDE90423E9
:10349000D1E90001FDF768FC41EC180B72E522232D
:1034A0009FED638BCBF800306CE5189A3AB135216B
:1034B0001AA803F05FFA5846189902F06FFD013E12
:1034C000199B042E00F2E181DFE806F0032C291E8F
:1034D000030003F233421A9B04931B9B23F48013D3
:1034E00043EA02530593E20502D543F000430593F6
:1034F000594A1A409DED048B002A7FF443AD01F038
:103500005BFA222303603DE54FF0FF326FF000438A
:10351000CDE90423E3057FF5D4AE059BE5E74E4BEB
:103520000593F7E7DDE91A121B9BCDE90412DAE7F0
:103530000A98A7E69FED407B8DED0E7B9FED407BCB
:103540008DED107B3EE44B4622460C9CB146DDF8E7
:1035500040C0C3F313014148002C00F0BE808142FB
:1035600000F00D81002A38D1049A1CEA020F36D0EF
:10357000B0EE480AF0EE680A049303F0BBF8099B2A
:1035800051EC100B002B00F03581049BC3F30A5360
:10359000C3F16B04002C05DD314E002206EB045311
:1035A000FDF7E2FB02460B4651EC180BFDF726FA3D
:1035B00041EC180B00222B4B51EC180BFDF7D4FB00
:1035C000254B41EC180B18EE902A1340002B7FF48A
:1035D000C9AE2223CBF80030C4E61A42C8D1099BF9
:1035E000002BE7D1BEE617A81AAA1F4902F062F91C
:1035F00005287FF45DAA1B9B43F0FF4343F4E003DF
:1036000005931A9B04939DED048BBBE402F1547364
:103610000593FFF720BB00BF000000000000000082
:103620009535A094FFFFDF3F35E5AF350000E03F63
:10363000000000000000F07F000000000000E0BF7C
:10364000000000000000E03FB07C0B08049D0C0867
:10365000089D0C08187F0B080000F07FFFFF0F008B
:103660000000F03F00005039C47C0B089535A09451
:10367000FFFFCF3F0C9BB146DDE904010343AED110
:10368000C1F31303002BAAD121F00044240D24051B
:10369000B4F1D66F2646A2D9D9F814301BB9D9F89F
:1036A0001030012B9BDD49460122584602F0CCFE2A
:1036B0005146814602F03CFF002890DD099BCBB1CA
:1036C000A6F580166FEA16536FEA035305934FF081
:1036D000FF3304939DED048B6CE7C9B9DDE9044524
:1036E000002C66D1099A002A40F08E8025F0004413
:1036F000240D2405A4F58014189E6FEA14536FEA74
:10370000035305934FF0FF3304939DED048B20E5A5
:10371000002A4AD1049A1CEA020F3FF460AFB0EECF
:10372000480AF0EE680A049302F0E4FF099B51ECAA
:10373000100B002B79D0049BC3F30A53C3F16B0425
:10374000002C05DD564E002206EB0453FDF70CFB62
:1037500002460B4651EC180BFDF74EF902460B469C
:1037600043EC182B00220023FDF766FD00283FF4F0
:1037700021AF2FE64FF0000A4A4DFFF74EBA0999E4
:10378000049E29B348491940B1F1D46F20D80C0DDB
:103790004FF0FF30C4F16B04A04086425ED0002A97
:1037A0006ED01A423FF406AFE2E61A423FF417AF7A
:1037B000B5E7002AF9D114EA0C0F3FF410AFAEE7D9
:1037C0004FF0FF3202FA03F3049A1A40049260E4C5
:1037D000711C3ED0002A7FF400AF16EA0C0F3FF4B4
:1037E000FEAEC5E6C2F14B024FF0FF3393400B40F3
:1037F00005934EE402460B4651EC180BFDF7FEF81C
:10380000189E41EC180BA4E4274E1E40B6F1D66F6B
:103810003FF656AFB6F15C7F3FF6CCAE2223189E42
:103820009FED1B8BCBF8003093E402460B4651EC26
:10383000180BFDF7E1F802460B46189C43EC182BD9
:10384000002200232646FDF7F7FC00283FF481AC58
:10385000C1E5164A93420CD01349194001F5801373
:103860000593002304939DED048BB8E6A446013430
:10387000DAE52223189E9FED088BCBF8003068E430
:1038800016EA0C0F3FF496AE72E600232BE600BF5B
:103890000000000000000000000000000000F07FB9
:1038A0000000F03F08800B080000F07FFFFFEF7F73
:1038B000014BFFF705B800BF5C00002010B4044CBA
:1038C00013460A46014620685DF8044BFEF7F8BF30
:1038D0000C00002010B4044C0A46044B014620683A
:1038E0005DF8044BFEF7ECBF0C0000205C000020EC
:1038F0002DE9F041DFF8A48013460A460146D8F8C6
:1039000000002DED028BFEF7DBFF55EC104B22463D
:103910002B4620462946FDF7C1FC50BB20462946D0
:10392000FDF71AFD08EE100ADFED197AB0EEC87A3D
:10393000B4EE677AF1EE10FA15DD25F000474FF08E
:10394000FF32144B20463946FDF7A8FC38B94FF03A
:10395000FF32104B20463946FDF782FC18B1D8F8EB
:10396000003022221A60B0EE480ABDEC028BBDE89E
:10397000F081002D084804DA02F0B6FAB1EE408A70
:10398000F1E7BDEC028BBDE8F04102F0ADBA00BF3B
:10399000FFFF7F7FFFFFEF7F20970C080C000020C8
:1039A0002DE970432C4E0A462C4B014630682DED14
:1039B000028BFEF785FF55EC104B22462B46204626
:1039C0002946FDF76BFCC0BB20462946FDF7C4FC29
:1039D00008EE100ADFED227AB0EEC87AB4EE677A0C
:1039E000F1EE10FA1ADD25F000494FF0FF321D4BC1
:1039F00020464946FDF752FC38B9204649464FF06B
:103A0000FF32184BFDF72CFC40B1336822221A60BC
:103A1000B0EE480ABDEC028BBDE8708318EE103A98
:103A200013F0FF4FF4D1104B2B40002BEDD1B0EE33
:103A3000480ABDEC028BBDE87083002D0B4804DA08
:103A400002F052FAB1EE408AE2E7BDEC028BBDE82B
:103A5000704302F049BA00BF0C0000205C00002057
:103A6000FFFF7F7FFFFFEF7F0000F07F20970C08B4
:103A70002DE9F0478E6881460C461D469E429046D1
:103A8000086836D8B1F90C3013F4906F0DD1354673
:103A90002A46414600F0C4FFA26823680020921B1A
:103AA0002B44A2602360BDE8F0876769096917EBC2
:103AB0004707A0EB010A05F1010048BF0137504458
:103AC0007F10B8423A4601D9074602465B0512D537
:103AD0001146484606F09EFA0646F8B1524621695C
:103AE00001F074F9A38923F4906343F08003A38168
:103AF00006E01E46CCE7484606F098FA064648B16E
:103B000006EB0A00A7EB0A0326612E466761A36055
:103B10002060BDE72169484606F080FAA3890C229F
:103B20004FF0FF3043F04003C9F80020A381BAE70B
:103B300093682DE9F04F924683B01768002B75D03B
:103B40004FF0000B81460C468B680A685D4647E0E3
:103B5000B4F90C3013F4906F2ED0D4E9041616EBA0
:103B60004606A2EB010848BF013608F101007610B5
:103B70002844B042324601D9064602465B0539D593
:103B80001146484606F046FA019000283CD04246CD
:103B9000216901F01BF9A289019B22F4906242F095
:103BA0008002A281A6EB080203EB08006661A8462A
:103BB0002E46A260236120603246594600F030FF55
:103BC000DAF80810A3682268491BA3EB0803324403
:103BD000A3602260CAF8081041B3D7E900B50837DE
:103BE00098461046002DF8D09D421E46B0D2A846F9
:103BF0002E46E1E7484606F019FA03460028D1D1DF
:103C00002169484606F00AFAA3890C224FF0FF30DA
:103C100043F04003C9F800200022A3810023CAF822
:103C20000820CAF8043003B0BDE8F08F002000235C
:103C3000CAF8043003B0BDE8F08F00BF2DE9F04FA3
:103C40001C468B899FB089461D068246934603D544
:103C50000B69002B00F0E78000237C4E01270594C0
:103C60000B9343F22003ADF831309BF800205D4602
:103C700052B1252A08D02C4615F8012F0AB1252A61
:103C8000F9D1B5EB0B0360D1002A6DD000234FF0C2
:103C9000FF320135069309938DF85B301C93CDE913
:103CA000072305E0801B254607FA00F0034306932F
:103CB0002C460522304614F8011B01F003FD069B3B
:103CC000A3460028EED1D90602D520228DF85B202C
:103CD0001A0702D52B228DF85B2029782A294BD18F
:103CE000059A111D1268002A059175DB0992697801
:103CF0002E2955D0564C0322204601F0E3FC38B162
:103D0000001B4022069B0BF1010B824013430693DC
:103D10001BF8011B06224F488DF8301001F0D2FC31
:103D200000285FD04C4B002B4FD005AC4B4B4A4684
:103D300006A950460094AFF300808046B8F1FF3FDB
:103D400012D00B9B43440B938FE75A46494650468B
:103D50000393FFF78DFE013006D00B9A039B1A44A4
:103D60000B926278002A91D1B9F80C305B0669D4C5
:103D70000B981FB0BDE8F08FA1F13002092A50D88E
:103D8000099B00E00134217803EB830302EB43033A
:103D9000A1F13002092AF5D92E29A3460993A9D108
:103DA0009BF801102A2927D1059B0BF10202191D4E
:103DB0001B68002B07930591B8BF4FF0FF339BF8AA
:103DC00002109346B8BF079394E7059B073323F08F
:103DD000070308330593B4E7524243F00203099204
:103DE000069384E705A81D4B4A4606A90090504655
:103DF00001F07EF98046A1E7A1F1300200230BF12A
:103E0000010B092A07933FF675AF03EB83031BF8F9
:103E1000011F02EB4303A1F13002092AF5D90793F0
:103E200068E7AB4664E7402106F0F4F8C9F8000003
:103E3000C9F8100018B14023C9F814300CE70C235E
:103E4000CAF800304FF0FF3093E700BF109D0C0818
:103E5000189D0C081C9D0C0800000000713A000819
:103E600041EA00020346920715D10A68A2F1013027
:103E700020EA020010F0803F0DD101F1040C6146F0
:103E800043F8042B5CF8042BA2F1013020EA020075
:103E900010F0803FF3D011F8012B184603F8012BE6
:103EA000002AF8D1704700BF2DE9F0410469B4EB56
:103EB000611F05DC0023036100234361BDE8F0813D
:103EC00000F114054E1111F01F0C05EB840E05EBEB
:103ED000860321D0043355F82610CCF120089E45E6
:103EE00021FA0CF12DD92F461A6802FA08F20A437A
:103EF00047F8042B53F8041B9E4521FA0CF1F3D824
:103F0000A31B9B00053B9B08013305EB830445F88D
:103F1000231071B104340CE09E45CBD900F110029E
:103F200053F8041B9E4542F8041FF9D8A41B05EB67
:103F30008404631BAC424FEAA3030361BCD0BDE819
:103F4000F08141610029B5D02C46E3E72DE9F04F1F
:103F50008A4685B0096803938B78302BCDE9002021
:103F600040F0EE81CA1C137814460132302BFAD08F
:103F7000A4EB0109A9F10209DFF8108318F8033056
:103F8000002B00F0D3802378002718F803303D463B
:103F9000002B00F06D81264616F8013F18F803301B
:103FA000002BF9D10122B849304601F0E3F98346EC
:103FB000002843D03278002D00F0A381AB1B4FEADC
:103FC000830B02F0DF023546502A43D0CAF8006066
:103FD000002F54D12A1B3946013A072A03DD52101B
:103FE0000131072AFBDC019801F098FF8246002886
:103FF00000F06A8200F11406A542029640F2CC81DC
:104000000027B9460CE03A4604372B78AC4218F842
:10401000033003F00F0303FA02F349EA030940D027
:1040200015F8013D2E2B01D1AC4231D9202FEAD118
:10403000002246F8049B04279146E6E7002D00F095
:1040400070813278AB1B354602F0DF024FEA830BFA
:10405000502ABBD16A782B2A00F051812D2A40F0DA
:10406000C5800120AA78AE1C18F802104A1E182A32
:1040700040F2C4802E46CAF80060002FAAD0B9F1E1
:10408000000F0CBF06250025284605B0BDE8F08FBF
:1040900001227D49284601F06DF90028C6D1AC42C5
:1040A000BED1029B484646F8049BF61AB610CAF8E1
:1040B0001060760102F03CF8009B361A1C68A6429C
:1040C00077DCC0F220810027009B9A685A45C0F235
:1040D0005881009B5A685A454BDDA2EB0B0B5C459F
:1040E00000F3A780DB68022B00F0F980032B00F0BF
:1040F0006A81012B40F0F7805C4540F0F480012C90
:1041000008D0611E504602F063FC002800F0EB80EE
:10411000009B5A680399012362250A60029ACAF833
:10412000103013600E9BC3F800A0ADE70122564982
:10413000204601F01FF90746002840F09B80637875
:10414000651C18F80320002A00F09680302B2C46BE
:1041500040F0448114F8013F302BFBD018F80330B5
:104160004FF00109B3FA83F77F09002B7FF413AFF7
:104170007EE001259FB1009BDA68022A00F088806A
:10418000032A00F08980012A07D1B90705D5029BCF
:104190001A681743FA0700F1838045F010050E9B5B
:1041A0002846C3F800A0039BC3F800B005B0BDE8E3
:1041B000F08F361B5046314602F00AFC074678B1B4
:1041C000711E029B01274A1153F8220001F01F02C1
:1041D00007FA02F2024203D0B94200F3E780022755
:1041E00031465046B344FFF75FFE6DE718F8021002
:1041F0006E1C00204A1E182A3FF63CAF7278103918
:10420000013618F8022002F1FF3CBCF1180F0CD85F
:1042100001EB810116F8013F02EB4102A2F110010E
:1042200018F80320531E182BF2D900B149428B44D1
:10423000CCE60BF1FF36002F40F0AC80002E40F0B2
:10424000AF807311029A06F01F06594652F82320D8
:1042500001235046A4EB0B04B3400225134218BFC0
:1042600047F00207FFF720FE009BD3F804B081E778
:10427000264697E62378254603F0DF03502B00F00F
:104280009E80CAF80050FAE6D4430C08007D0B0863
:104290000F9BC3F101030F930F9B002B3FF47DAFE6
:1042A000029B0026DAF8107098461A464FEA8709F2
:1042B00003EB870003E0904242F8046C44D9944633
:1042C00052F8041B4B1CF6D00131022DCCF8001023
:1042D0007DD014F01F0440F0AB8021255FE70F9BD9
:1042E000002B3FF417AF50250198514601F056FEC0
:1042F00000230E9A2846136005B0BDE8F08F002019
:10430000B0E6AB465DE6A61B514601980027324653
:10431000ABEB060B02F098F800F11403824602930F
:10432000D2E67278751C18F802102E4600293FF468
:1043300048AE16F8012F18F80230002BF9D13DE6EF
:104340008C1C4FF0000917E6DAF80820974248DA8B
:104350007A1C01210AEB8707022DCAF81020DDF82C
:104360000880796133D0002A6FDC0022CAF810205F
:104370000022CAF81420009B0BF1010B9A685A45E1
:10438000ABDA5146019801F009FE00230E9AA325ED
:10439000136079E6012754E7029E4FF0000980E69A
:1043A0003146504602F014FB07464AE7B11E50461C
:1043B00002F00EFB00283FF412AF032710E74FF086
:1043C000000B012746E60F9B002B8CD0A2E6009B3A
:1043D0001A68013AA24263D02225E0E64FF00109B3
:1043E000D9E5DAF804100198013101F097FD06468D
:1043F00000286FD0DAF810200AF10C010C3006F119
:1044000014080232920000F0E1FC51460198B246D5
:1044100001F0C4FD31690120022D01EB000206EB21
:10442000810132614861D2D09742BFF652AF9AE71C
:10443000C144C4F1200459F8040C01F079FEA042F3
:10444000BFF64BAFDAF810208DE708EB82000AF1D7
:104450001804DAF81420A0424FEA52022CD945463B
:10446000236842EAC37245F8042B54F8042BA04297
:104470004FEA5202F4D8A0EB0A0119398908013138
:1044800048F8212008EB810102B10431A1EB0802B8
:1044900041454FEAA202CAF810207FF46CAF67E7EB
:1044A000621104F01F0458F822100122A2400A42AF
:1044B00014BF2125222572E6C8F800200AB1414622
:1044C000E3E7CAF8102053E70246054BE42105480C
:1044D000FDF798FD0246024B84210248FDF792FD4C
:1044E000249D0C08389D0C082DE9F04780460C46A9
:1044F0004548264614F801EB10F80EC01CF0080CD5
:10450000F7D1BEF12D0F5BD0BEF12B0F3AD065462F
:1045100033F010003ED04FF0FF379A46B7FBF3F769
:1045200003FB07F96FEA0909002630460EE0AEF1F9
:10453000370C63451DDD002E04DBB84202D833D1B1
:10454000CC4531DD4FF0FF3614F801EBAEF1300C05
:10455000BCF1090FEDD9AEF1410CBCF1190FE6D950
:10456000AEF1610CBCF1190F03D8AEF1570C6345E5
:10457000E1DC731C1CD005B140420AB1F6B91160F0
:10458000BDE8F08733F0100094F800E0654606F1CE
:104590000204C0D1BEF1300F17D06BBB0A234FF01D
:1045A00005091A4F9A46BFE700FB0AC00126CBE770
:1045B00022233046C8F80030002AE1D0611EDEE731
:1045C00094F800E00125B41CA2E7207800F0DF0099
:1045D000582807D083B908234FF007096FF06047C8
:1045E0009A46A1E7102394F801E04FF00F09023436
:1045F0006FF070479A4697E710234FF00F096FF05E
:1046000070479A4690E700BF017E0B089999991967
:104610006AE700BF10B4044C13460A4601462068FE
:104620005DF8044B60E700BF0C00002010B4044CA0
:1046300013460A46014620685DF8044B54E700BF64
:104640000C0000200EB470B59DB000254FF401722F
:1046500021AC1B95ADF8142054F8046B0290069021
:10466000FEF782F80B4903464FF6FF7032460B9176
:104670000949ADF81600039307932346086802A979
:104680000F951495019402F0CBFB1DB0BDE870406E
:1046900003B07047010800080C0000200CB4F0B50E
:1046A0009DB000254FF40173064622AC0846ADF8D4
:1046B000143054F8047B1B9502910691FEF754F8D0
:1046C0000B4903460F953A4614954FF6FF75039331
:1046D0003046079323460B9102A9ADF8165001947A
:1046E00002F09EFB1DB0BDE8F04002B0704700BF75
:1046F00001080008036A2DE9F04180460E468468EF
:10470000002B3BD0A3891B0717D52369ABB1013E12
:10471000A36816F8015F013BA360EDB1002B07DA37
:10472000A7692246294640469F4210DC0A2D0ED03A
:1047300023685A1C22601D70EAE72146404600F0BB
:10474000E3FA0028E3D04FF0FF30BDE8F08101F03C
:1047500075FB0130DCD1F6E7002B09DA22460A218D
:10476000404601F06BFB0130EDD00A20BDE8F0813E
:1047700023680A22591C21601A70F6E7FBF712FF22
:10478000C0E700BF024B01461868FFF7B3BF00BF88
:104790000C00002022B310B584188646114A04E0AC
:1047A0001B1A1BD1B8B1A64516D01EF8013B11F853
:1047B000010B12F803C00CF0030CBCF1010F12F84E
:1047C00000C00CF0030C08BF2033BCF1010FE7D18F
:1047D0002030181AE7D010BD002010BD184610BDBB
:1047E00010467047017E0B08062008B502F06CFDEC
:1047F000012005F0E5FB00BF2DE9F04F85B08B46A9
:104800001E460D4601925D4A0390294615F8014B5C
:10481000135D13F00803F8D12D2C00F082802B2CAF
:1048200051D0029336F0100A54D04FEAE67A32465D
:104830004FF0FF304FF0FF315346B146FCF72CFEEE
:1048400032460746884653464FF0FF304FF0FF315F
:10485000FCF722FE944600221046114613E0A4F114
:1048600037039E421FDD002A09DB874278EB0102F5
:1048700005D3414508BFB8423BD1634539DD4FF010
:10488000FF3215F8014BA4F13003092BE9D9A4F14B
:104890004103192BE3D9A4F16103192B03D8A4F127
:1048A00057039E42DFDC531C30D0029B13B14042C1
:1048B00061EB4101019B1BB182BB019BC3F800B0BE
:1048C00005B0BDE8F08F36F0100A2C78029301F1A4
:1048D0000205AAD1302C29D0002E44D14FF00A096C
:1048E000B2464FF0050C4FF09937DFF894804E46F2
:1048F000B1E709FB01F100FB0A11A9FB0002114419
:1049000018184FF0010241EBE371BAE72223039933
:1049100010460B601146019B002BD1D005F1FF3BE7
:10492000CBE701232C788D1C02937BE72B7803F0D7
:10493000DF03582B0BD0B6B94FF00809B2464FF041
:10494000070C4FF0FF376FF060484E4683E74FF09B
:1049500010096C784FF00F0C02354FF0FF376FF0F5
:1049600070484E4677E74FF010094FF00F0C4FF0AC
:10497000FF376FF070484E466DE700BF017E0B08B1
:104980009999991938E700BF10B4044C13460A46A8
:10499000014620685DF8044B2EE700BF0C000020A4
:1049A00010B4044C13460A46014620685DF8044BD7
:1049B00022E700BF0C000020014B1868704700BFC1
:1049C0000C000020830730B427D10468A4F1013320
:1049D00023EA040313F0803F034608D153F8045F31
:1049E000A5F1013424EA050414F0803FF6D01C78C8
:1049F0001CB113F8014F002CFBD162B1013903EB5C
:104A0000020C11F8012F03F8012B22B19C45F8D1BB
:104A100000238CF8003030BC70470346E7E700BF46
:104A200088420ED98B1883420BD900EB020C002A66
:104A30006ED0624613F801CD994202F801CDF9D14A
:104A400070470F2A0FD8034602F1FF3C002A5FD0BF
:104A50000CF1010C013B8C4411F8012B614503F86A
:104A6000012FF9D1704740EA01039B0751D1A2F110
:104A7000100301F1200C70B523F00F0501F1100EA9
:104A800000F110041B09AC445EF8105C0EF1100E2E
:104A9000103444F8205C5EF81C5C44F81C5C5EF842
:104AA000185C44F8185C5EF8145CE64544F8145C45
:104AB000EAD1013312F00C0F02F00F0C01EB0311DD
:104AC00000EB031329D0ACF1040C1C1F8E462CF014
:104AD00003064FEA9C0C1E445EF8045B44F8045F36
:104AE000B442F9D10CF1010402F0030203EB840398
:104AF00001EB840102F1FF3C4AB10CF1010C013BD6
:104B00008C4411F8012B614503F8012FF9D170BDD8
:104B1000704702F1FF3C03469AE76246EAE700BFAE
:104B200038B511F0FF040CD00346002501E0431C0A
:104B3000054621461846FDF7FDF90028F7D128461D
:104B400038BD2146BDE83840FDF7F4B90A220021FE
:104B500000F0ACB80A23002200F086B82DE9F04F2F
:104B600082468E463F4875461EF801BB10F80B4042
:104B700014F00804F7D1BBF12D0F5BD0BBF12B0F64
:104B80006FF0004904BF9EF800B005F1020E33F04B
:104B9000100010D1BBF1300F04D0002B5ED10A23DE
:104BA0001F4609E09EF8000000F0DF0058284ED0B4
:104BB000002B53D108231F460025B9FBF7F62846E2
:104BC00007FB16980EE0ABF1370C63451DDD002D99
:104BD00004DB864202D321D1E0451FDA4FF0FF35D6
:104BE0001EF801BBABF1300CBCF1090FEDD9ABF1F4
:104BF000410CBCF1190FE6D9ABF1610CBCF1190FF6
:104C000003D8ABF1570C6345E1DC6B1C0AD004B14F
:104C100040420AB1CDB91160BDE8F08F07FB00C07A
:104C20000125DDE72223CAF800305AB10EF1FF3129
:104C30004846F0E79EF800B04FF0004905F1020E3B
:104C40000124A4E74846BDE8F08F8146EEE7102333
:104C50009EF801B00EF1020E1F46ADE710231F466D
:104C6000AAE700BF017E0B08242B02D8012B00D03D
:104C700074E710B5FFF7A0FE16230360002010BDF7
:104C800010B5242A084C1346246807D8012A05D0F9
:104C90000A4601462046BDE810405FE7FFF78CFE5C
:104CA00016230360002010BD0C00002010B5242A3C
:104CB000084C1346246807D8012A05D00A46014645
:104CC0002046BDE8104049E7FFF776FE1623036053
:104CD000002010BD0C00002010B4034CD4F8E040BC
:104CE000A4465DF8044B60475C000020034649B1D0
:104CF000FF2A02D801200A7070478A224FF0FF3045
:104D00001A6070470846704738B52F4B05460C4669
:104D10001B6813B11A6A002A45D0B4F90C30180781
:104D200016D52269F2B113F0010107D061690020A4
:104D30004942A060A1613AB1002038BD980758BF30
:104D40006169A160002AF7D1190638D4104638BD30
:104D5000D9062CD55A0712D4226943F00803A3813F
:104D6000002AE0D103F42071B1F5007FDBD02146A9
:104D7000284600F03FFBB4F90C302269D3E7616BA1
:104D800051B104F14402914204D0284605F046F99D
:104D9000B4F90C30002262630021226923F024035D
:104DA000C4E90021D9E71846FBF7FCFBB5E7092267
:104DB00043F040032A60A3814FF0FF3038BD43F039
:104DC0004003A381F8E700BF0C000020844641EABD
:104DD000000313F0030349D1403A23D30B68036067
:104DE0004B6843608B688360CB68C3600B69036169
:104DF0004B6943618B698361CB69C3610B6A036251
:104E00004B6A43628B6A8362CB6AC3620B6B036338
:104E10004B6B43638B6B8363CB6BC363403040311D
:104E2000403ADBD230320BD30B6803604B684360EF
:104E30008B688360CB68C36010301031103AF3D2B6
:104E40000C3205D351F8043B40F8043B043AF9D244
:104E5000043208D0D2071CBF11F8013B00F8013B17
:104E600001D30B8803806046704700BF082A13D324
:104E70008B07B1D010F00303AED0C3F10403D21AF4
:104E8000DB071CBF11F8013B00F8013BA4D331F84C
:104E9000023B20F8023B9FE7043AD9D3013A11F8CC
:104EA000013B00F8013BF9D20B7803704B7843705B
:104EB0008B7883706046704740EA01039B0730B5EA
:104EC00001D1032A17D8844601F1FF3E07E01EF8FE
:104ED000011F541E03F8011B29B122469C4663465C
:104EE000002AF4D130BD002CFCD0944403F8011BFF
:104EF0006345FBD130BD0C46844625682146043409
:104F0000A5F1013323EA050313F0803FDCD1043A15
:104F10004CF8045B032AF0D82146D5E70CB400B561
:104F200083B004AB53F8042B019300F05FFE03B091
:104F30005DF804EB02B070470EB410B583B0074CB7
:104F4000014605AB206853F8042B019300F04EFE98
:104F500003B0BDE8104003B0704700BF0C00002054
:104F6000194B70B51D6804460E466A6C32B1314665
:104F700020460123BDE8704002F0C4BB502005F07C
:104F800041F802466864D0B100233146037783615B
:104F9000C364C0E90033C0E90233C0E90433C0E9A7
:104FA0000B33C0E90D33C0E90F33C0E91133C0E959
:104FB000093320460123BDE8704002F0A3BB034B38
:104FC0005B210348FDF71EF80C000020809C0C08B4
:104FD000749D0C082DE9F84F92461F460A690C464D
:104FE0008B680646DDF828909A42B8BF1A46CAF880
:104FF000002091F8433013B10132CAF80020226832
:1050000091065DD5DAF800300233CAF80030226824
:1050100012F0060F11461BD1E168994266DD4FF090
:10502000000804F1190B05E0E568DAF80030ED1A24
:1050300045450CDD01235A4639463046C847013004
:1050400008F10108F0D14FF0FF30BDE8F88F21687A
:1050500094F84330003B18BF01238A060AD5E118B3
:105060005A1C30200233224481F8430094F8451042
:1050700082F8431004F1430239463046C8470130F4
:10508000E1D02368DAF8005003F006032169042B0D
:10509000D4E902201BD08A4220DD4FF00008521ACA
:1050A00090441A34002501E0454517DA01232246D1
:1050B00039463046C847013005F10105F4D1C2E751
:1050C00012F0060F0DD0003B18BF0123D2E7401BA2
:1050D0008A4220EAE078E2DC0028E2DC0020BDE839
:1050E000F88FDAF80030E168994298DC1146AFE7B2
:1050F0002DE9F047174684B00A7E0C4606469846CE
:105100000C9D01F1430C002A35D0A2F15803D9B20D
:10511000202969D8202B67D8DFE813F0E600660065
:10512000660066006600660066006600660066004F
:105130006600AC00700066006600660066007000E5
:10514000660066006600660021008300C6006600F7
:105150006600B6006600830066006600EC002B68FF
:105160002268181D6169286010061B6802D4520667
:1051700000F1E08019600023E14623613B4603AA69
:1051800021463046CDF80080FFF724FF013020D0C3
:105190004A46236939463046C047013019D0236852
:1051A000E0689B07DDF80C9018D5484516DD002512
:1051B00004F1190A04E0E068A0EB0903AB420DDD3D
:1051C0000123524639463046C047013005F10105FA
:1051D000F1D14FF0FF3004B0BDE8F0874845B8BFCB
:1051E000484604B0BDE8F087012004F1420984F884
:1051F00042200023206184F84330BFE72A682368F7
:10520000111D1806296002D4590600F19580106816
:10521000014600286268C0F2938054484FF00A0E9D
:1052200015E020682B6810F0800F53F8041B02D1A2
:10523000400648BF89B26F2A4C482B6014BF4FF01C
:105240000A0E4FF0080E0023626884F84330002AEB
:10525000A26051DB236823F00403236000294BD1B3
:10526000002A7BD1E146BEF1080F56D0ACEB090312
:10527000236183E72A6804F142090120111D1268A5
:10528000296084F84220B4E72B6800216268181D69
:105290002860D3F80090484600F014FA002863D044
:1052A000A0EB09006060A4E7236843F020032360BB
:1052B00078222F4884F845202A6813F0800F52F88E
:1052C000041B03D113F0400F18BF89B22A60DA071C
:1052D00002D543F02003236019B9236823F020038B
:1052E00023604FF0100EAEE75823204884F8453075
:1052F0002368E1E72368DBE77546E1460A46B1FB30
:10530000F5F305FB131AAA42194610F80A3009F8FA
:10531000013DF3D2BEF1080FA8D12368DD07A5D562
:10532000626823699A42A1DC302309F1FF3989F8C8
:1053300000309BE719801EE7B2F90010084668E7C5
:105340002D20002AA26084F8430002DB23F004032E
:1053500023600A2549420548AE46CEE7037804F1AA
:10536000420984F842307EE7606842E73CD30B088C
:10537000A49D0C08CAB384460B4630B504460843C6
:10538000800719D09CF800000C78A04212D150B3CD
:10539000012A28D0E64603E01CEB030F23D010B30C
:1053A0001EF8010F11F8014FA2EB0E03A04203F10A
:1053B000FF33F1D0001B30BD032A07D8E2E7043ADF
:1053C00011D01EF0803F0ED1032A10D92068194653
:1053D00053F8045BA446A0F1013E0434A8422EEA2F
:1053E000000EECD0CEE7002030BD10467047A4463A
:1053F0001946C7E7B1F90C3070B50C46990796B05D
:1054000007D504F1470301222360C4E9043216B032
:1054100070BDB4F90E10054600292ADB6A4602F079
:10542000A7F9002823DB4FF480612846019E04F091
:10543000F1FD002831D0A38906F470464FF4806254
:10544000206043F08003B6F5005F2061A3816261B4
:10545000DDD1B4F90E10284600F070FB0028D6D03C
:10546000A38923F0030343F00103A381CFE7B4F939
:105470000C3013F0800F284614BF40254FF4806590
:10548000294604F0C7FD40B1A389206043F08003A2
:10549000C4E90405A38116B070BDB4F90C309A05B7
:1054A000B5D423F0030304F14702012143F00203C2
:1054B0002260C4E90421A381A9E700BF70B50C46AE
:1054C000B1F90E1096B0154600291E460FDB6A464C
:1054D00002F04EF900280ADB019B4FF4806203F4CE
:1054E0007043A3F50053B3FA83F35B0907E0A28985
:1054F000002312F0800F14BF40224FF4806200207E
:1055000033602A6016B070BD80EA010C1CF0030FF6
:1055100037D110F0030C20F0030021F0030150F804
:10552000042B08BF51F8043B0ED08CF0030C6FF035
:105530007F434FEACC0C23FA0CFC51F8043B42EABF
:105540000C0243EA0C0300BFA2F1013C9A4201BFE6
:105550002CEA020C1CF0803F50F8042B51F8043B5D
:10556000F2D04FEA02604FEA1222012828BFB0EBC6
:10557000036F08BF1B0AF4D003F0FF03000EC01A2C
:10558000704710F0030F0AD010F8012B11F8013BFF
:10559000012A28BF9A42F4D0A2EB030070474DF8CD
:1055A000045D50F8042B01F0030521F0030151F8CC
:1055B000043B022D26D04DD822F07F45B5EB132FAA
:1055C000A2F1013C2CEA020C0DD11CF0803C08BF7A
:1055D00051F8043B0AD185EA0205B5EB036F0CD103
:1055E00050F8042BE8E74FEA13235BE03CF07F4CD4
:1055F00054D10B784FEA126554E04FEA126503F07C
:10560000FF034FE04FEA0245A2F1013C4FEA154586
:105610002CEA020CB5EB134F18D11CF0803C08BFEC
:1056200051F8043B07D185EA0205B5EB034F09D1D8
:1056300050F8042BE6E75FEA0C4C2FD10B884FEAB9
:1056400012452FE04FEA03434FEA12454FEA134356
:1056500028E000BF02F0FF05B5EB136FA2F1013C9B
:105660002CEA020C0DD11CF0803C08BF51F8043B21
:105670000AD185EA0205B5EB032F0AD150F8042BB5
:10568000E8E74FEA13630DE012F0FF0F06D051F880
:10569000043B4FEA122523F07F4303E04FF0000064
:1056A00020BC704705F0FF0203F0FF00012828BF6F
:1056B000904204BF2D0A1B0AF4D0A2EB000020BCCC
:1056C000704700BF5FFA81FC810744D00346511E3A
:1056D00022B909E09A0709D0013905D318460133E8
:1056E00002786245F6D170470020704718460329BA
:1056F0000CD80029F8D00346014401E08B42F3D0D6
:10570000184613F8012B6245F8D1704710B50CEB21
:105710000C24024604EB044402E00439032915D9A1
:10572000104652F8043B6340A3F1013E2EEA030306
:1057300013F0803FF1D00346014401E08B4208D0D2
:10574000184613F8012B6245F8D110BD1046002908
:10575000F1D1002010BD1146C9E700BF002A08B4EE
:1057600010B504469DB036DB4FF4027302910691EA
:10577000ADF814304FF000031B9320AB17D0013A63
:105780004FF6FF71019304920792ADF8161002A92B
:105790001F9AFEF753FA421C01DA8B232360029B07
:1057A00000221A701DB0BDE8104001B070474FF6DE
:1057B000FF7104920792ADF8161002A91F9A019387
:1057C000FEF73CFA431C01DA8B2323601DB0BDE8D1
:1057D000104001B070478B234FF0FF302360F5E796
:1057E0000CB40029214B10B51C689CB038DB4FF07D
:1057F00000034FF4027202901B931FAB0690ADF8AA
:10580000142018D001394FF6FF701E9A04910791A9
:1058100002A9ADF8160020460193FEF70FFA421CCC
:1058200001DA8B232360029B00221A701CB0BDE8B2
:10583000104002B070474FF6FF700491079102A923
:10584000ADF8160020461E9A0193FEF7F7F9431CA7
:1058500001DA8B2323601CB0BDE8104002B0704712
:105860008B234FF0FF302360F5E700BF0C000020D2
:10587000024B0146186800F03DBB00BF0C00002041
:1058800010B504688646013409E014F8013BA3F121
:10589000410CBCF1190F98BF2033934207D111F886
:1058A000012B002AF1D10120CEF8004010BD0020CC
:1058B00010BD00BF09682DE9F04F4B1185B011F004
:1058C0001F01044602EB8303029140F09A80181FE7
:1058D00019462568002641F8046C01352B78002B09
:1058E00000F0A780B446019106468646DFF8808125
:1058F000E1466746E346AA460146039418F80300CA
:1059000000285CD1202B00F28E804F4520DD7645AB
:105910001AD9BCF1070F17DCCCF10804DEF800300F
:105920007046CDF800E0A400C4F1200CA6464468FF
:1059300004FA0CF51D4324FA0EF3056040F8043F09
:105940008642F4D8DDF800E0724551D34FF0080CE0
:105950001AF8013F002BD1D108460199002F68D0D9
:10596000B64502D2BCF1070F67DD72454CD2141F59
:10597000734653F8045B834244F8045FF9D9A0EB03
:105980000E03441C0EF1010E23F003030433A6455D
:1059900088BF04230024134443F8044B8342FBD9FB
:1059A00051F8044C1CB106E050F8043D1BB982428A
:1059B000FAD101230360052005B0BDE8F08F0CF19A
:1059C000010C0137BCF1080F08DCDEF800301B01C8
:1059D00000F00F001843CEF80000B9E77245B7D2C7
:1059E0004EF804BC0023AEF1040E4FF0010CEFE7BB
:1059F000AEF104064EF804BCB9464FF0000CB646B2
:105A0000A6E7191D184664E7029B51F8044C002BC9
:105A1000C8D0C3F120034FF0FF3525FA03F31C4033
:105A200041F8044CBEE7292B084655460199039CD2
:105A30001BD0042005B0BDE8F08FCCF10803DEF8E0
:105A4000004077469B002546C3F120089C467B68B2
:105A500003FA08F42C4323FA0CF53C6047F8045F82
:105A6000BE42F4D8724582D3CEE70135256075E792
:105A7000007D0B08032A30B415D941EA000484469E
:105A80000B46A40704D0541E0FE0043A032A08D999
:105A90001946604653F8044B5CF8045BA542F4D009
:105AA000F1E760461946541E7AB1431E01390219C6
:105AB00001E09A4209D013F8010F11F801CF6045B7
:105AC000F7D0A0EB0C0030BC7047002030BC704712
:105AD00071B1034600EB010C01E0634506D01A46A4
